:1000000020C144C1DDC242C141C190C23FC13EC115
:100010003DC13CC14FC33AC139C138C137C1650D7B
:100020000000310E0000090F0000EE0F0000E0108C
:100030000000E1110000F21200001214000043154C
:10004000000087160000DE17000049190000CA1AD8
:100050000000621C0000121E0000DC1F0000C12115
:100060000000C3230000E325000024280000872AA5
:1000700000000E2D0000BC2F0000933200009535CB
:100080000000C4380000243C0000B83F0000824358
:10009000000086470000C64B0000485000000E5587
:1000A00000001D5A0000785F000026650000296BE3
:1000B00000008971000049780000707F000004870B
:1000C00000000B8F00008D97000090A000001CAA7C
:1000D000000039B40000F1BE00004BCA000053D646
:1000E000000011E3000092F00000E0FE0000080EA6
:1000F0000100161E0100192F01001F410100385494
:10010000010073680100E27D010097940100A6AC34
:10011000010023C6010024E10100C0FD0100101C04
:1001200002002D3C0200335E02003F8202006FA8F5
:100130000200E5D00200C3FB02002E2903004B5948
:100140000300468C030048C2030080FB03002038F4
:1001500004005A78040066BC04007E040500DF50E9
:100160000500CBA1050087F705005B52060097B29A
:1001700006008B1807009084070000F707003F7007
:100180000800B4F00800CC780900FB080A00BEA102
:100190000A0096430B000DEF0B00B7A40C002E6570
:1001A0000D0017310E001F090F0001EE0F007FE058
:1001B000100067E1110097F11200F61114007B4363
:1001C00015002B8716001ADE17006D4919005BCA4F
:1001D0001A002D621C003F121E0002DC1F00FDC031
:1001E0002100CFC223002FE32500ED232800F7864E
:1001F0002A00560E2D0034BC2F00DB923200B7943B
:1002000035005AC438007E243C0004B83F0000008A
:100210000000370000000000360000000000380039
:10022000020202020202020202020102040810207B
:1002300020041008010200000400000000000E0667
:10024000B50611241FBECFE5D2E0DEBFCDBF10E062
:10025000A0E6B0E0E8E0FEE002C005900D92A23713
:10026000B107D9F721E0A2E7B0E001C01D92A331A8
:10027000B207E1F711E0C0E2D1E003C02197FE012F
:10028000ADD5CF31D107D1F74AD3B2C5B9CECF92D0
:10029000DF92EF92FF920F931F93CF93DF936C0146
:1002A0007A018B01C0E0D0E0CE15DF0589F0D801DE
:1002B0006D918D01D601ED91FC910190F081E02DC1
:1002C000C6010995892B11F47E0102C02196ECCF5D
:1002D000C701DF91CF911F910F91FF90EF90DF90B9
:1002E000CF90089590E0FC01EC5CFD4F3491FC014F
:1002F000E65DFD4F2491FC01E05EFD4FE491EE23AD
:1003000039F1332399F0323071F028F4313071F43F
:100310008AB58F770AC0333011F0343039F48CB598
:100320008F7D8CBD03C08AB58F7D8ABDF0E0EE0F56
:10033000FF1FE65EFD4FA591B4918FB7F894EC9145
:10034000611103C020952E2301C02E2B2C938FBF4B
:1003500008952091D8003091D9002817390771F4F9
:100360009091D6008091D700981741F0E091D60087
:10037000F0E0EA56FF4F808190E008958FEF9FEF05
:10038000089508951F93CF93DF93DC015C962D9120
:100390003C915D972115310539F481E090E0139689
:1003A0009C938E9312973DC05196ED91FC9152977C
:1003B00050969C915097892F80951FB75E964C91CF
:1003C0005E9741FB772770F941FD6095F894408175
:1003D000772311F0492B01C048234083E90121977D
:1003E000F1F748E0508160FF02C0592B01C058234B
:1003F0005083E9012197F1F76695415099F77723EA
:1004000021F090818923808303C08081982B908381
:100410001FBF5C968D919C915D970197F1F721E04C
:1004200030E0C901DF91CF911F9108952091D8004C
:100430003091D9002817390769F48091D7002091AD
:10044000D60090E0805C9F4F821B910960E470E0D1
:100450009ED4089580E090E008952091D8003091D6
:10046000D90028173907B9F49091D6008091D700A8
:10047000981789F0E091D600F0E0EA56FF4F8081AE
:100480002091D60030E02F5F3F4F2F73332720930A
:10049000D60090E008958FEF9FEF0895E091D80087
:1004A000F091D900E817F90769F4A389B4899C9100
:1004B0008589809589238C931092D9001092D80059
:1004C00081E0089580E00895089580E090E0089527
:1004D00090E06C3708F06BE7E62FF0E0EE0FFF1FBF
:1004E000EE0FFF1FE25EFF4F4591559165917491AC
:1004F0009C01220F331F220F331FF901EA57FF4FD0
:100500004083518362837383F901EA58FF4F40E0CF
:1005100050E060E470E04083518362837383FC01A8
:10052000EE51FF4F21E0208308955ED41F920F9279
:100530000FB60F9211242F933F938F939F93AF93F6
:10054000BF9380910F0190911001A0911101B09182
:10055000120130910E0123E0230F2D3720F4019674
:10056000A11DB11D05C026E8230F0296A11DB11DD6
:1005700020930E0180930F0190931001A09311011D
:10058000B093120180910A0190910B01A0910C018E
:10059000B0910D010196A11DB11D80930A019093A8
:1005A0000B01A0930C01B0930D01BF91AF919F91EE
:1005B0008F913F912F910F900FBE0F901F90189524
:1005C0001F920F920FB60F9211242F933F934F93C8
:1005D0005F936F937F938F939F93AF93BF93EF93AB
:1005E000FF93E091D800F091D900309709F451C001
:1005F000968DA685B785858591FF04C09C9189233A
:1006000029F447C09C91892309F043C0A389B48988
:100610009C918589809589238C93868997890197F8
:10062000F1F7608D718DA685B785558538E020E09E
:10063000CB010197F1F7822F90E095958795282FB0
:100640004C91452309F02068315091F7868D81FD4A
:1006500020958091D70090E001968F739927309173
:10066000D600381749F0A091D700B0E0AA56BF4F86
:100670002C938093D70003C0868D8160868F828DF6
:10068000938D0197F1F7A389B4899C918589892B72
:100690008C93FF91EF91BF91AF919F918F917F913B
:1006A0006F915F914F913F912F910F900FBE0F90DF
:1006B0001F9018951F920F920FB60F9211242F932F
:1006C0004F935F936F937F938F939F93AF93BF935A
:1006D0008091E2008823F1F14091860050918700DB
:1006E00060918800709189008091760090917700E8
:1006F000A0917800B0917900841B950BA60BB70BE5
:100700008093760090937700A0937800B09379005F
:100710008091760090917700A0917800B091790057
:10072000B7FF18C09091DD0081E089278093DD003C
:100730008091760090917700A0917800B091790037
:10074000A05CBF4F8093760090937700A0937800D1
:10075000B09379008091E3008823F1F140918A0001
:1007600050918B0060918C0070918D0080917A0087
:1007700090917B00A0917C00B0917D00841B950B33
:10078000A60BB70B80937A0090937B00A0937C001C
:10079000B0937D0080917A0090917B00A0917C00C5
:1007A000B0917D00B7FF18C09091DE0081E08927ED
:1007B0008093DE0080917A0090917B00A0917C0074
:1007C000B0917D00A05CBF4F80937A0090937B0036
:1007D000A0937C00B0937D008091E4008823F1F128
:1007E00040918E0050918F00609190007091910027
:1007F00080917E0090917F00A0918000B091810057
:10080000841B950BA60BB70B80937E0090937F0003
:10081000A0938000B093810080917E0090917F0032
:10082000A0918000B0918100B7FF18C09091DF00C7
:1008300081E089278093DF0080917E0090917F0086
:10084000A0918000B0918100A05CBF4F80937E009A
:1008500090937F00A0938000B09381008091E50089
:100860008823F1F14091920050919300609194009F
:10087000709195008091820090918300A0918400F6
:10088000B0918500841B950BA60BB70B809382005B
:1008900090938300A0938400B093850080918200A0
:1008A00090918300A0918400B0918500B7FF18C09B
:1008B0009091E00081E089278093E00080918200A0
:1008C00090918300A0918400B0918500A05CBF4FFF
:1008D0008093820090938300A0938400B09385005E
:1008E0002091DD008091DE0090E0820F911D20912B
:1008F000DF00820F911D9091E000890F6CE03ED2E5
:1009000088BDBF91AF919F918F917F916F915F91C2
:100910004F912F910F900FBE0F901F9018957894C4
:100920008AB582608ABD8AB581608ABD83B78260DC
:1009300083BF83B7816083BF89B7826089BF80B777
:10094000826080BF80B7816080BF329A319A309ACE
:10095000379A8CB580648CBD82E087BB1ABC13BE0D
:1009600081E28ABD8AE083BF82E389BD80E189BFDD
:1009700010920501109204011092030110920201DD
:1009800010920101109200018DE790E09093070111
:10099000809306013091F600353020F54DE250E0AD
:1009A00050930101409300014BE750E05093030145
:1009B0004093020144E550E0509305014093040147
:1009C0002BB720622BBF45E350E05093FE004093CD
:1009D000FD0021E001C0220F3A95EAF72093FF00C5
:1009E0000197F1F78091040190910501892B19F18C
:1009F0008091D8009091D90020E08A3E9207D9F0EA
:100A0000009709F04BDD809108018E7F80930801EB
:100A10001092D7001092D6008AEE90E09093D90001
:100A20008093D800E091FD00F091FE0090818091CC
:100A3000FF00892B808300E010E0DFEF8AEE90E07A
:100A4000F5DC181619060CF0BCC0C09109018AEE3D
:100A500090E003DDEC2FF0E0E951FF4F808387FF4A
:100A600006C0CC2321F08093E70010920901809109
:100A700009018F5F80930901833001F7109209010A
:100A80008091E700982F907F8F70903BA1F4209188
:100A9000E800283781F41092E2001092DD001092F5
:100AA000E3001092DE001092E4001092DF0010923A
:100AB000E5001092E000893009F2903909F044C055
:100AC000C091E8008091E600C81709F44DC0C093BA
:100AD000E6003091E2008091E3002091E40090E094
:100AE000830F911D820F911D039741F48091E500C2
:100AF000811104C08091DA008C1369C02091E2005A
:100B00008091E30090E0820F911D029741F4809163
:100B1000E400811104C08091DB008C135EC08091E1
:100B2000E200882341F08091E300811104C08091AC
:100B3000DC008C1358C08091E200811115C08091B7
:100B4000E1008C130CC010C0903871F48091E80063
:100B50009091E60098130DC0D093E6000AC06C2F68
:100B600080E0B6DCC093E1008091E900882371F356
:100B700065CF9091E200992321F09091E1009817C0
:100B8000C1F19091E300992321F09091DC00981736
:100B9000B9F19091E400992321F09091DB0098172E
:100BA000B1F19091E500992309F448CF9091DA00D2
:100BB000981344CF1092E5001092E0001092DA00F2
:100BC0003DCF0115110509F439CF1ADA37CF6C2F53
:100BD00083E07EDCC093DA0091CF6C2F82E078DC7A
:100BE000C093DB009CCF6C2F81E072DCC093DC00F3
:100BF000A2CF1092E2001092DD001092E100C1CF6E
:100C00001092E3001092DE001092DC00C2CF10922E
:100C1000E4001092DF001092DB00C3CF0F931F930C
:100C2000CF93DF931092ED001092EC0088EE93E0EA
:100C3000A0E0B0E08093EE009093EF00A093F0006E
:100C4000B093F10084E690E09093EB008093EA008B
:100C50001092010110920001109203011092020102
:100C600010920501109204011092070110920601E2
:100C7000609108016E7F6D7F6093080166956170D9
:100C800081E0682785E02EDBEFE2F2E02491E5E2E7
:100C9000F2E08491882399F090E0880F991FFC017D
:100CA000E25FFD4FA591B491FC01E65EFD4F859199
:100CB00094918FB7F894EC91E22BEC938FBFEFE215
:100CC000F2E0E491E093FA00E5E2F2E0E491F0E092
:100CD000EE0FFF1FE65EFD4F859194919093FC000F
:100CE0008093FB000AE212E0F8012491C0E2D2E016
:100CF000FE0184918823C9F090E0880F991FFC01C0
:100D0000E25FFD4FA591B491865E9D4FFC01459138
:100D100054913FB7F8949C91822F809598239C938F
:100D2000FA019081892380833FBF8091080181FD72
:100D300003C061E080E0D6DA1092F600F801049179
:100D40000093F700FE01C491EC2FF0E0EE0FFF1FBF
:100D5000EC5EFD4F859194919093F9008093F8009B
:100D6000DF91CF911F910F91089584E690E09093C9
:100D7000EB008093EA008AEE90E090CB002480FDA7
:100D8000060E660F11F08695D1F7802D089597FB1A
:100D9000072E16F4009406D077FD08D00BD007FC80
:100DA00005D03EF4909581959F4F0895709561957B
:100DB0007F4F0895AA1BBB1B51E107C0AA1FBB1F91
:100DC000A617B70710F0A61BB70B881F991F5A95D7
:100DD000A9F780959095BC01CD010895EE0FFF1FF6
:100DE0000590F491E02D099481E090E0F89400C022
:100DF00011E0C0E2D1E003C0FE01F0DF2196C13274
:080E0000D107D1F7F894FFCFF0
:100E080000000000C20147016502C10116022D025F
:020E1800A9012E
:00000001FF
