:1000000020C144C1DDC242C141C190C23FC13EC115
:100010003DC13CC14FC33AC139C138C137C1650D7B
:100020000000310E0000090F0000EE0F0000E0108C
:100030000000E1110000F21200001214000043154C
:10004000000087160000DE17000049190000CA1AD8
:100050000000621C0000121E0000DC1F0000C12115
:100060000000C3230000E325000024280000872AA5
:1000700000000E2D0000BC2F0000933200009535CB
:100080000000C4380000243C0000B83F0000824358
:10009000000086470000C64B0000485000000E5587
:1000A00000001D5A0000785F000026650000296BE3
:1000B00000008971000049780000707F000004870B
:1000C00000000B8F00008D97000090A000001CAA7C
:1000D000000039B40000F1BE00004BCA000053D646
:1000E000000011E3000092F00000E0FE0000080EA6
:1000F0000100161E0100192F01001F410100385494
:10010000010073680100E27D010097940100A6AC34
:10011000010023C6010024E10100C0FD0100101C04
:1001200002002D3C0200335E02003F8202006FA8F5
:100130000200E5D00200C3FB02002E2903004B5948
:100140000300468C030048C2030080FB03002038F4
:1001500004005A78040066BC04007E040500DF50E9
:100160000500CBA1050087F705005B52060097B29A
:1001700006008B1807009084070000F707003F7007
:100180000800B4F00800CC780900FB080A00BEA102
:100190000A0096430B000DEF0B00B7A40C002E6570
:1001A0000D0017310E001F090F0001EE0F007FE058
:1001B000100067E1110097F11200F61114007B4363
:1001C00015002B8716001ADE17006D4919005BCA4F
:1001D0001A002D621C003F121E0002DC1F00FDC031
:1001E0002100CFC223002FE32500ED232800F7864E
:1001F0002A00560E2D0034BC2F00DB923200B7943B
:1002000035005AC438007E243C0004B83F0000008A
:100210000000370000000000360000000000380039
:10022000020202020202020202020102040810207B
:1002300020041008010200000400000000008606EF
:10024000280711241FBECFE5D2E0DEBFCDBF10E0EE
:10025000A0E6B0E0EEEEFEE002C005900D92A237FF
:10026000B107D9F721E0A2E7B0E001C01D92AE319D
:10027000B207E1F711E0C0E2D1E003C02197FE012F
:1002800020D6CF31D107D1F790D325C6B9CECF92A2
:10029000DF92EF92FF920F931F93CF93DF936C0146
:1002A0007A018B01C0E0D0E0CE15DF0589F0D801DE
:1002B0006D918D01D601ED91FC910190F081E02DC1
:1002C000C6010995892B11F47E0102C02196ECCF5D
:1002D000C701DF91CF911F910F91FF90EF90DF90B9
:1002E000CF90089590E0FC01EC5CFD4F3491FC014F
:1002F000E65DFD4F2491FC01E05EFD4FE491EE23AD
:1003000039F1332399F0323071F028F4313071F43F
:100310008AB58F770AC0333011F0343039F48CB598
:100320008F7D8CBD03C08AB58F7D8ABDF0E0EE0F56
:10033000FF1FE65EFD4FA591B4918FB7F894EC9145
:10034000611103C020952E2301C02E2B2C938FBF4B
:1003500008952091E0003091E1002817390771F4E9
:100360009091DE008091DF00981741F0E091DE006F
:10037000F0E0E256FF4F808190E008958FEF9FEF0D
:10038000089508951F93CF93DF93DC015C962D9120
:100390003C915D972115310539F481E090E0139689
:1003A0009C938E9312973DC05196ED91FC9152977C
:1003B00050969C915097892F80951FB75E964C91CF
:1003C0005E9741FB772770F941FD6095F894408175
:1003D000772311F0492B01C048234083E90121977D
:1003E000F1F748E0508160FF02C0592B01C058234B
:1003F0005083E9012197F1F76695415099F77723EA
:1004000021F090818923808303C08081982B908381
:100410001FBF5C968D919C915D970197F1F721E04C
:1004200030E0C901DF91CF911F9108952091E00044
:100430003091E1002817390769F48091DF0020919D
:10044000DE0090E0805C9F4F821B910960E470E0C9
:1004500011D5089580E090E008952091E00030915A
:10046000E10028173907B9F49091DE008091DF0090
:10047000981789F0E091DE00F0E0E256FF4F8081AE
:100480002091DE0030E02F5F3F4F2F733327209302
:10049000DE0090E008958FEF9FEF0895E091E00077
:1004A000F091E100E817F90769F4A389B4899C91F8
:1004B0008589809589238C931092E1001092E00049
:1004C00081E0089580E00895089580E090E0089527
:1004D00090E06C3708F06BE7E62FF0E0EE0FFF1FBF
:1004E000EE0FFF1FE25EFF4F4591559165917491AC
:1004F0009C01220F331F220F331FF901E657FF4FD4
:100500004083518362837383F901EA58FF4F40E0CF
:1005100050E060E470E04083518362837383FC01A8
:10052000E451FF4F21E020830895D1D41F920F9210
:100530000FB60F9211242F933F938F939F93AF93F6
:10054000BF9380911A0190911B01A0911C01B09161
:100550001D013091190123E0230F2D3720F401965E
:10056000A11DB11D05C026E8230F0296A11DB11DD6
:100570002093190180931A0190931B01A0931C01F1
:10058000B0931D018091150190911601A091170162
:10059000B09118010196A11DB11D80931501909392
:1005A0001601A0931701B0931801BF91AF919F91CD
:1005B0008F913F912F910F900FBE0F901F90189524
:1005C0001F920F920FB60F9211242F933F934F93C8
:1005D0005F936F937F938F939F93AF93BF93EF93AB
:1005E000FF93E091E000F091E100309709F451C0F1
:1005F000968DA685B785858591FF04C09C9189233A
:1006000029F447C09C91892309F043C0A389B48988
:100610009C918589809589238C93868997890197F8
:10062000F1F7608D718DA685B785558538E020E09E
:10063000CB010197F1F7822F90E095958795282FB0
:100640004C91452309F02068315091F7868D81FD4A
:1006500020958091DF0090E001968F73992730916B
:10066000DE00381749F0A091DF00B0E0A256BF4F7E
:100670002C938093DF0003C0868D8160868F828DEE
:10068000938D0197F1F7A389B4899C918589892B72
:100690008C93FF91EF91BF91AF919F918F917F913B
:1006A0006F915F914F913F912F910F900FBE0F90DF
:1006B0001F9018951F920F920FB60F9211242F932F
:1006C0004F935F936F937F938F939F93AF93BF935A
:1006D0008091EC008823F1F140918A0050918B00C9
:1006E00060918C0070918D008091760090917700E0
:1006F000A0917800B0917900841B950BA60BB70BE5
:100700008093760090937700A0937800B09379005F
:100710008091760090917700A0917800B091790057
:10072000B7FF18C09091E60081E089278093E6002A
:100730008091760090917700A0917800B091790037
:10074000A05CBF4F8093760090937700A0937800D1
:10075000B09379008091ED008823F1F140918E00F3
:1007600050918F00609190007091910080917A007B
:1007700090917B00A0917C00B0917D00841B950B33
:10078000A60BB70B80937A0090937B00A0937C001C
:10079000B0937D0080917A0090917B00A0917C00C5
:1007A000B0917D00B7FF18C09091E70081E08927E4
:1007B0008093E70080917A0090917B00A0917C006B
:1007C000B0917D00A05CBF4F80937A0090937B0036
:1007D000A0937C00B0937D008091EE008823F1F11E
:1007E0004091920050919300609194007091950017
:1007F00080917E0090917F00A0918000B091810057
:10080000841B950BA60BB70B80937E0090937F0003
:10081000A0938000B093810080917E0090917F0032
:10082000A0918000B0918100B7FF18C09091E800BE
:1008300081E089278093E80080917E0090917F007D
:10084000A0918000B0918100A05CBF4F80937E009A
:1008500090937F00A0938000B09381008091EF007F
:100860008823F1F140919600509197006091980093
:10087000709199008091820090918300A0918400F2
:10088000B0918500841B950BA60BB70B809382005B
:1008900090938300A0938400B093850080918200A0
:1008A00090918300A0918400B0918500B7FF18C09B
:1008B0009091E90081E089278093E900809182008E
:1008C00090918300A0918400B0918500A05CBF4FFF
:1008D0008093820090938300A0938400B09385005E
:1008E0008091F0008823F1F140919A0050919B0093
:1008F00060919C0070919D0080918600909187008E
:10090000A0918800B0918900841B950BA60BB70BB2
:100910008093860090938700A0938800B09389000D
:100920008091860090918700A0918800B091890005
:10093000B7FF18C09091EA0081E089278093EA0010
:100940008091860090918700A0918800B0918900E5
:10095000A05CBF4F8093860090938700A09388008F
:10096000B09389002091E6008091E70090E0820F2B
:10097000911D2091E800820F911D2091E900820FC6
:10098000911D9091EA00890F6AE06BD288BDBF91FA
:10099000AF919F918F917F916F915F914F912F9127
:1009A0000F900FBE0F901F90189578948AB58260B3
:1009B0008ABD8AB581608ABD83B7826083BF83B7F1
:1009C000816083BF89B7826089BF80B7826080BF42
:1009D00080B7816080BF329A319A309A379A8CB54D
:1009E00080648CBD82E087BB1ABC13BE81E28ABDE5
:1009F0008AE083BF82E389BD80E189BF1092100144
:100A000010920F0110920E0110920D0110920C0124
:100A100010920B018DE790E09093120180931101E9
:100A200030910101353020F54DE250E050930C013A
:100A300040930B014BE750E050930E0140930D01A2
:100A400044E550E05093100140930F012BB7206212
:100A50002BBF45E350E0509309014093080121E08A
:100A600001C0220F3A95EAF720930A010197F1F7A6
:100A700080910F0190911001892B19F18091E00074
:100A80009091E10020E0853F9207D9F0009709F0AE
:100A900005DD809113018E7F809313011092DF009A
:100AA0001092DE0085EF90E09093E1008093E000EB
:100AB000E0910801F0910901908180910A01892B50
:100AC000808300E010E0DFEF85EF90E0AFDC1816E8
:100AD00019060CF0E1C0C091140185EF90E0BDDC77
:100AE000EC2FF0E0EE50FF4F808387FF06C0CC2351
:100AF00021F08093F20010921401809114018F5F15
:100B000080931401833001F7109214018091F20058
:100B1000982F907F8F70903BA1F41092EC00109270
:100B2000E6001092ED001092E7001092EE00109295
:100B3000E8001092EF001092E9001092F00010927D
:100B4000EA00893009F2903909F05DC0C091F300E4
:100B50008091F100C81709F466C0C093F10040917C
:100B6000EC008091ED003091EE002091EF0090E0DC
:100B7000840F911D830F911D820F911D049741F4E5
:100B80008091F000811104C08091E2008C138AC032
:100B90003091EC008091ED002091EE0090E0830F09
:100BA000911D820F911D039741F48091EF008111F7
:100BB00004C08091E3008C137BC02091EC008091F5
:100BC000ED0090E0820F911D029741F48091EE00BC
:100BD000811104C08091E4008C1370C08091EC00FE
:100BE000882341F08091ED00811104C08091E500DF
:100BF0008C136AC08091EC00811115C08091EB00CC
:100C00008C130CC010C0903871F48091F300909157
:100C1000F10098130DC0D093F1000AC06C2F80E052
:100C200057DCC093EB008091F400882371F34CCF24
:100C30009091EC00992329F09091EB00981709F41A
:100C400049C09091ED00992329F09091E500981703
:100C500009F447C09091EE00992329F09091E400A7
:100C6000981709F445C09091EF00992329F09091CD
:100C7000E300981709F443C09091F000992309F418
:100C800023CF9091E20098131FCF1092F0001092A2
:100C9000EA001092E20018CF0115110509F414CFF3
:100CA000AFD912CF6C2F84E013DCC093E20070CF79
:100CB0006C2F83E00DDCC093E3007FCF6C2F82E0CC
:100CC00007DCC093E4008ACF6C2F81E001DCC09385
:100CD000E50090CF1092EC001092E6001092EB002D
:100CE000B0CF1092ED001092E7001092E500B2CF65
:100CF0001092EE001092E8001092E400B4CF10922F
:100D0000EF001092E9001092E300B6CFCF93DF938B
:100D10001092F8001092F70088EE93E0A0E0B0E0A7
:100D20008093F9009093FA00A093FB00B093FC002D
:100D300084E690E09093F6008093F50010920C0109
:100D400010920B0110920E0110920D0110921001E1
:100D500010920F0110921201109211016091130173
:100D60006E7F6D7F609313016695617081E06827E7
:100D700085E0B8DAEFE2F2E02491E5E2F2E0849176
:100D8000882399F090E0880F991FFC01E25FFD4FE6
:100D9000A591B491FC01E65EFD4F859194918FB7CA
:100DA000F894EC91E22BEC938FBFEFE2F2E0E49148
:100DB000E0930501E5E2F2E0E491F0E0EE0FFF1FC1
:100DC000E65EFD4F85919491909307018093060113
:100DD000EEE2F2E02491E4E2F2E084918823C1F0B3
:100DE00090E0880F991FFC01E25FFD4FC591D491FF
:100DF000FC01E65EFD4FA591B4919FB7F894888100
:100E0000E22FE0958E2388838C91E823EC939FBF9B
:100E10008091130181FD03C061E084E063DA84E026
:100E200080930101EEE2F2E0E491E0930201E4E25A
:100E3000F2E0E491F0E0EE0FFF1FEC5EFD4F8591D4
:100E400094919093040180930301DF91CF910895D1
:100E500084E690E09093F6008093F50085EF90E0B3
:100E60001DCB002480FD060E660F11F08695D1F78C
:100E7000802D089597FB072E16F4009406D077FD79
:100E800008D00BD007FC05D03EF4909581959F4F7C
:100E90000895709561957F4F0895AA1BBB1B51E182
:100EA00007C0AA1FBB1FA617B70710F0A61BB70BDA
:100EB000881F991F5A95A9F780959095BC01CD017F
:100EC0000895EE0FFF1F0590F491E02D099481E045
:100ED00090E0F89400C011E0C0E2D1E003C0FE0150
:0E0EE000F0DF2196C132D107D1F7F894FFCF91
:100EEE0000000000C20147016502C10116022D0279
:020EFE00A90148
:00000001FF
